{
  "transactions": [
    {
      "hash": "0x88950a3e3775692689f385b3433451308b204082af9f059b906fb6cddc66d98e",
      "transactionType": "CALL",
      "contractName": null,
      "contractAddress": "0xd9e0bb2cd4f52d1393a6165bab9122c4f0b5da30",
      "function": "habilitarVeterinario(address)",
      "arguments": [
        "0x7085f13112156cEa21DE14eF8aea4c0C1aD84530"
      ],
      "transaction": {
        "from": "0x6cae87d29ef5d0aa09344f2c310fc5269a9bf088",
        "to": "0xd9e0bb2cd4f52d1393a6165bab9122c4f0b5da30",
        "gas": "0x894d",
        "value": "0x0",
        "input": "0x2ae27aba0000000000000000000000007085f13112156cea21de14ef8aea4c0c1ad84530",
        "nonce": "0x3a",
        "chainId": "0xaa36a7"
      },
      "additionalContracts": [],
      "isFixedGasLimit": false
    }
  ],
  "receipts": [
    {
      "status": "0x1",
      "cumulativeGasUsed": "0x5285a2",
      "logs": [
        {
          "address": "0xd9e0bb2cd4f52d1393a6165bab9122c4f0b5da30",
          "topics": [
            "0xbccdcbc57e184d57d540f2f3a970a0392f1f41e477bc9cbd035cee66a244b631"
          ],
          "data": "0x0000000000000000000000007085f13112156cea21de14ef8aea4c0c1ad84530",
          "blockHash": "0x0c3e09980f99dffeb9ac0859d3de3f4f4579111e8833944cb2a8b8c1f0899ece",
          "blockNumber": "0x9486b5",
          "blockTimestamp": "0x692b5a44",
          "transactionHash": "0x88950a3e3775692689f385b3433451308b204082af9f059b906fb6cddc66d98e",
          "transactionIndex": "0x25",
          "logIndex": "0x6a",
          "removed": false
        }
      ],
      "logsBloom": "0x00000000000000000000000000000000000000000000000000000000000000000020000000000000000000000000000000000000000000000000000000000000000000000000000000000000000000000000000000000000000000000000000000080000000000000000000000000000000000000000004000000000000000000000000000000000000000000000000000000000000000000000000000000000000000000000000000000000000000000000000000000000000000000000000000000000000000000000000000000000000000000000000000000000000000000000000000000000000000008040000000000000000000000000000000000008",
      "type": "0x2",
      "transactionHash": "0x88950a3e3775692689f385b3433451308b204082af9f059b906fb6cddc66d98e",
      "transactionIndex": "0x25",
      "blockHash": "0x0c3e09980f99dffeb9ac0859d3de3f4f4579111e8833944cb2a8b8c1f0899ece",
      "blockNumber": "0x9486b5",
      "gasUsed": "0x6368",
      "effectiveGasPrice": "0xf4248",
      "from": "0x6cae87d29ef5d0aa09344f2c310fc5269a9bf088",
      "to": "0xd9e0bb2cd4f52d1393a6165bab9122c4f0b5da30",
      "contractAddress": null
    }
  ],
  "libraries": [],
  "pending": [],
  "returns": {},
  "timestamp": 1764448837327,
  "chain": 11155111,
  "commit": "b116723"
}