{
  "transactions": [
    {
      "hash": "0xa1a64fe8e406a2a15f930fe08b52dda353825da28e35ac42b5e074843a3f7d47",
      "transactionType": "CALL",
      "contractName": null,
      "contractAddress": "0xd9e0bb2cd4f52d1393a6165bab9122c4f0b5da30",
      "function": "habilitarVeterinario(address)",
      "arguments": [
        "0x7085f13112156cEa21DE14eF8aea4c0C1aD84530"
      ],
      "transaction": {
        "from": "0x6cae87d29ef5d0aa09344f2c310fc5269a9bf088",
        "to": "0xd9e0bb2cd4f52d1393a6165bab9122c4f0b5da30",
        "gas": "0xf4ac",
        "value": "0x0",
        "input": "0x2ae27aba0000000000000000000000007085f13112156cea21de14ef8aea4c0c1ad84530",
        "nonce": "0x4",
        "chainId": "0xaa36a7"
      },
      "additionalContracts": [],
      "isFixedGasLimit": false
    }
  ],
  "receipts": [
    {
      "status": "0x1",
      "cumulativeGasUsed": "0x46f6b5",
      "logs": [
        {
          "address": "0xd9e0bb2cd4f52d1393a6165bab9122c4f0b5da30",
          "topics": [
            "0xbccdcbc57e184d57d540f2f3a970a0392f1f41e477bc9cbd035cee66a244b631"
          ],
          "data": "0x0000000000000000000000007085f13112156cea21de14ef8aea4c0c1ad84530",
          "blockHash": "0x353e923ed78538fccabb0b4af67ae6260cdab84647bd3c9923b3359869589540",
          "blockNumber": "0x94306c",
          "blockTimestamp": "0x692721f0",
          "transactionHash": "0xa1a64fe8e406a2a15f930fe08b52dda353825da28e35ac42b5e074843a3f7d47",
          "transactionIndex": "0x31",
          "logIndex": "0x41",
          "removed": false
        }
      ],
      "logsBloom": "0x00000000000000000000000000000000000000000000000000000000000000000020000000000000000000000000000000000000000000000000000000000000000000000000000000000000000000000000000000000000000000000000000000080000000000000000000000000000000000000000004000000000000000000000000000000000000000000000000000000000000000000000000000000000000000000000000000000000000000000000000000000000000000000000000000000000000000000000000000000000000000000000000000000000000000000000000000000000000000008040000000000000000000000000000000000008",
      "type": "0x2",
      "transactionHash": "0xa1a64fe8e406a2a15f930fe08b52dda353825da28e35ac42b5e074843a3f7d47",
      "transactionIndex": "0x31",
      "blockHash": "0x353e923ed78538fccabb0b4af67ae6260cdab84647bd3c9923b3359869589540",
      "blockNumber": "0x94306c",
      "gasUsed": "0xb124",
      "effectiveGasPrice": "0xab7fe73c",
      "from": "0x6cae87d29ef5d0aa09344f2c310fc5269a9bf088",
      "to": "0xd9e0bb2cd4f52d1393a6165bab9122c4f0b5da30",
      "contractAddress": null
    }
  ],
  "libraries": [],
  "pending": [],
  "returns": {},
  "timestamp": 1764172272853,
  "chain": 11155111,
  "commit": "f0551bc"
}