{
  "transactions": [
    {
      "hash": "0x4f0bcfd9881f1581f0beba0a72baefd949f88d755b1ba03c94c4d17abc13e742",
      "transactionType": "CALL",
      "contractName": null,
      "contractAddress": "0xd9e0bb2cd4f52d1393a6165bab9122c4f0b5da30",
      "function": "habilitarVeterinario(address)",
      "arguments": [
        "0x7085f13112156cEa21DE14eF8aea4c0C1aD84530"
      ],
      "transaction": {
        "from": "0x6cae87d29ef5d0aa09344f2c310fc5269a9bf088",
        "to": "0xd9e0bb2cd4f52d1393a6165bab9122c4f0b5da30",
        "gas": "0x894d",
        "value": "0x0",
        "input": "0x2ae27aba0000000000000000000000007085f13112156cea21de14ef8aea4c0c1ad84530",
        "nonce": "0x2d",
        "chainId": "0xaa36a7"
      },
      "additionalContracts": [],
      "isFixedGasLimit": false
    }
  ],
  "receipts": [
    {
      "status": "0x1",
      "cumulativeGasUsed": "0x2b3eee",
      "logs": [
        {
          "address": "0xd9e0bb2cd4f52d1393a6165bab9122c4f0b5da30",
          "topics": [
            "0xbccdcbc57e184d57d540f2f3a970a0392f1f41e477bc9cbd035cee66a244b631"
          ],
          "data": "0x0000000000000000000000007085f13112156cea21de14ef8aea4c0c1ad84530",
          "blockHash": "0x76070125660bd019f01cdf26ba63ac4b81f72e5f72d0c938e20a99f29f609c80",
          "blockNumber": "0x946d31",
          "blockTimestamp": "0x692a27cc",
          "transactionHash": "0x4f0bcfd9881f1581f0beba0a72baefd949f88d755b1ba03c94c4d17abc13e742",
          "transactionIndex": "0x21",
          "logIndex": "0x16",
          "removed": false
        }
      ],
      "logsBloom": "0x00000000000000000000000000000000000000000000000000000000000000000020000000000000000000000000000000000000000000000000000000000000000000000000000000000000000000000000000000000000000000000000000000080000000000000000000000000000000000000000004000000000000000000000000000000000000000000000000000000000000000000000000000000000000000000000000000000000000000000000000000000000000000000000000000000000000000000000000000000000000000000000000000000000000000000000000000000000000000008040000000000000000000000000000000000008",
      "type": "0x2",
      "transactionHash": "0x4f0bcfd9881f1581f0beba0a72baefd949f88d755b1ba03c94c4d17abc13e742",
      "transactionIndex": "0x21",
      "blockHash": "0x76070125660bd019f01cdf26ba63ac4b81f72e5f72d0c938e20a99f29f609c80",
      "blockNumber": "0x946d31",
      "gasUsed": "0x6368",
      "effectiveGasPrice": "0xf4248",
      "from": "0x6cae87d29ef5d0aa09344f2c310fc5269a9bf088",
      "to": "0xd9e0bb2cd4f52d1393a6165bab9122c4f0b5da30",
      "contractAddress": null
    }
  ],
  "libraries": [],
  "pending": [],
  "returns": {},
  "timestamp": 1764370382755,
  "chain": 11155111,
  "commit": "f0551bc"
}