{
  "transactions": [
    {
      "hash": "0x95e6b8b3e70e90f003c83a5beed503f691d14c3bb9847dd2ad34d62440a3984d",
      "transactionType": "CALL",
      "contractName": null,
      "contractAddress": "0xd9e0bb2cd4f52d1393a6165bab9122c4f0b5da30",
      "function": "habilitarVeterinario(address)",
      "arguments": [
        "0x7085f13112156cEa21DE14eF8aea4c0C1aD84530"
      ],
      "transaction": {
        "from": "0x6cae87d29ef5d0aa09344f2c310fc5269a9bf088",
        "to": "0xd9e0bb2cd4f52d1393a6165bab9122c4f0b5da30",
        "gas": "0x894d",
        "value": "0x0",
        "input": "0x2ae27aba0000000000000000000000007085f13112156cea21de14ef8aea4c0c1ad84530",
        "nonce": "0x33",
        "chainId": "0xaa36a7"
      },
      "additionalContracts": [],
      "isFixedGasLimit": false
    }
  ],
  "receipts": [
    {
      "status": "0x1",
      "cumulativeGasUsed": "0x4d5724",
      "logs": [
        {
          "address": "0xd9e0bb2cd4f52d1393a6165bab9122c4f0b5da30",
          "topics": [
            "0xbccdcbc57e184d57d540f2f3a970a0392f1f41e477bc9cbd035cee66a244b631"
          ],
          "data": "0x0000000000000000000000007085f13112156cea21de14ef8aea4c0c1ad84530",
          "blockHash": "0x6a69955df618a9dd9e84f131d8e8fdd84f27f37a33c50100bb7750a087089102",
          "blockNumber": "0x9485e0",
          "blockTimestamp": "0x692b5048",
          "transactionHash": "0x95e6b8b3e70e90f003c83a5beed503f691d14c3bb9847dd2ad34d62440a3984d",
          "transactionIndex": "0x41",
          "logIndex": "0x39",
          "removed": false
        }
      ],
      "logsBloom": "0x00000000000000000000000000000000000000000000000000000000000000000020000000000000000000000000000000000000000000000000000000000000000000000000000000000000000000000000000000000000000000000000000000080000000000000000000000000000000000000000004000000000000000000000000000000000000000000000000000000000000000000000000000000000000000000000000000000000000000000000000000000000000000000000000000000000000000000000000000000000000000000000000000000000000000000000000000000000000000008040000000000000000000000000000000000008",
      "type": "0x2",
      "transactionHash": "0x95e6b8b3e70e90f003c83a5beed503f691d14c3bb9847dd2ad34d62440a3984d",
      "transactionIndex": "0x41",
      "blockHash": "0x6a69955df618a9dd9e84f131d8e8fdd84f27f37a33c50100bb7750a087089102",
      "blockNumber": "0x9485e0",
      "gasUsed": "0x6368",
      "effectiveGasPrice": "0x100599",
      "from": "0x6cae87d29ef5d0aa09344f2c310fc5269a9bf088",
      "to": "0xd9e0bb2cd4f52d1393a6165bab9122c4f0b5da30",
      "contractAddress": null
    }
  ],
  "libraries": [],
  "pending": [],
  "returns": {},
  "timestamp": 1764446281279,
  "chain": 11155111,
  "commit": "b116723"
}