{
  "transactions": [
    {
      "hash": "0x33685a30da6391e08c843e2e6fca54431d2db6e7a7d490050f5f9ee4d7de8e00",
      "transactionType": "CALL",
      "contractName": null,
      "contractAddress": "0xd9e0bb2cd4f52d1393a6165bab9122c4f0b5da30",
      "function": "habilitarVeterinario(address)",
      "arguments": [
        "0x7085f13112156cEa21DE14eF8aea4c0C1aD84530"
      ],
      "transaction": {
        "from": "0x6cae87d29ef5d0aa09344f2c310fc5269a9bf088",
        "to": "0xd9e0bb2cd4f52d1393a6165bab9122c4f0b5da30",
        "gas": "0x894d",
        "value": "0x0",
        "input": "0x2ae27aba0000000000000000000000007085f13112156cea21de14ef8aea4c0c1ad84530",
        "nonce": "0x21",
        "chainId": "0xaa36a7"
      },
      "additionalContracts": [],
      "isFixedGasLimit": false
    }
  ],
  "receipts": [
    {
      "status": "0x1",
      "cumulativeGasUsed": "0x93b966",
      "logs": [
        {
          "address": "0xd9e0bb2cd4f52d1393a6165bab9122c4f0b5da30",
          "topics": [
            "0xbccdcbc57e184d57d540f2f3a970a0392f1f41e477bc9cbd035cee66a244b631"
          ],
          "data": "0x0000000000000000000000007085f13112156cea21de14ef8aea4c0c1ad84530",
          "blockHash": "0xd3aeee7c5b375d687888d78b4a4ab07982840f81ce8d0cd444fd6c39b0fb2c70",
          "blockNumber": "0x944a17",
          "blockTimestamp": "0x69285fa8",
          "transactionHash": "0x33685a30da6391e08c843e2e6fca54431d2db6e7a7d490050f5f9ee4d7de8e00",
          "transactionIndex": "0x2e",
          "logIndex": "0xea",
          "removed": false
        }
      ],
      "logsBloom": "0x00000000000000000000000000000000000000000000000000000000000000000020000000000000000000000000000000000000000000000000000000000000000000000000000000000000000000000000000000000000000000000000000000080000000000000000000000000000000000000000004000000000000000000000000000000000000000000000000000000000000000000000000000000000000000000000000000000000000000000000000000000000000000000000000000000000000000000000000000000000000000000000000000000000000000000000000000000000000000008040000000000000000000000000000000000008",
      "type": "0x2",
      "transactionHash": "0x33685a30da6391e08c843e2e6fca54431d2db6e7a7d490050f5f9ee4d7de8e00",
      "transactionIndex": "0x2e",
      "blockHash": "0xd3aeee7c5b375d687888d78b4a4ab07982840f81ce8d0cd444fd6c39b0fb2c70",
      "blockNumber": "0x944a17",
      "gasUsed": "0x6368",
      "effectiveGasPrice": "0xf7599",
      "from": "0x6cae87d29ef5d0aa09344f2c310fc5269a9bf088",
      "to": "0xd9e0bb2cd4f52d1393a6165bab9122c4f0b5da30",
      "contractAddress": null
    }
  ],
  "libraries": [],
  "pending": [],
  "returns": {},
  "timestamp": 1764253609905,
  "chain": 11155111,
  "commit": "f0551bc"
}